:020000040800F2
:100000000807002089010008D71400080F13000812
:10001000D5140008B9030008E71800080000000024
:100020000000000000000000000000005315000860
:10003000BD04000800000000D914000841160008A3
:100040009F0100089F0100089F0100089F01000810
:100050009F0100089F0100089F0100089F01000800
:100060009F0100089F0100089F0100089F010008F0
:100070009F0100089F0100089F0100089F010008E0
:100080009F0100089F0100089F0100089F010008D0
:100090009F0100089F0100089F0100089F010008C0
:1000A0009F0100089F0100089F0100089F010008B0
:1000B000A51600089F0100089F0100089F01000885
:1000C0009F0100089F0100089F0100089F01000890
:1000D0009F0100089F0100089F0100089F01000880
:1000E0009F0100089F0100089F01000800F002F82E
:1000F00000F03AF80AA090E8000C82448344AAF188
:100100000107DA4501D100F02FF8AFF2090EBAE885
:100110000F0013F0010F18BFFB1A43F0010318473B
:100120007C2D00009C2D0000103A24BF78C878C1B7
:10013000FAD8520724BF30C830C144BF04680C60ED
:10014000704700000023002400250026103A28BF35
:1001500078C1FBD8520728BF30C148BF0B60704739
:100160001FB51FBD10B510BD00F054F81146FFF7C4
:10017000F7FF01F04FFC00F072F803B4FFF7F2FF55
:1001800003BC00F079F8000008480047FEE7FEE7EE
:10019000FEE7FEE7FEE7FEE7FEE7FEE7FEE7FEE737
:1001A00003480449044A054B70470000ED0000086D
:1001B0000801002008070020080300200803002091
:1001C0004FF0000200B5134694469646203922BFF0
:1001D000A0E80C50A0E80C50B1F12001BFF4F7AF3B
:1001E000090728BFA0E80C5048BF0CC05DF804EB1D
:1001F000890028BF40F8042B08BF704748BF20F88B
:10020000022B11F0804F18BF00F8012B7047704788
:1002100070477047754600F02BF8AE4605006946FA
:10022000534620F00700854618B020B5FFF7B8FF09
:10023000BDE820404FF000064FF000074FF00008E7
:100240004FF0000B21F00701AC46ACE8C009ACE868
:10025000C009ACE8C009ACE8C0098D46704710B5CC
:100260000446AFF300802046BDE81040FFF785BF8D
:1002700000487047A400002001491820ABBEFEE7EB
:1002800026000200704700004FEA002000F1804085
:10029000810028BFC0F100404000DFF860C0C0F31B
:1002A000895109B35CF82120C1F500715CF8213057
:1002B0004FEA8021DFF848C0A1FB0CC14FEA1121B1
:1002C0004FF000001044A0FB01C04FEA5000A3EB28
:1002D0000000A0FB01C010444FEA500028BF40427C
:1002E000C01140F100007047DFF818C0A0FB0CC03F
:1002F0004FEA901028BF404270470000741A00086F
:10030000A2DA0FC937CD0FC980FB01014FEA106097
:1003100000EB0120704700004FEA0020810028BF59
:10032000C0F100404000DFF860C0C0F3895109B35C
:100330005CF82120C1F500715CF821304FEA802182
:10034000DFF848C0A1FB0CC14FEA11214FF00000BB
:100350001044A0FB01C04FEA5000A3EB0000A0FB3B
:1003600001C010444FEA500028BF4042C01140F184
:1003700000007047DFF818C0A0FB0CC04FEA9010D7
:1003800028BF404270470000741A0008A2DA0FC963
:1003900037CD0FC978B110F0004148BF4042B0FAE4
:1003A00080F3C3F1860200FA03F04FEA102062F3F3
:1003B000DE5041EA00007047FEE72DE9F05F83461A
:1003C000DDE90B549046894618460A9E02F05CFB14
:1003D00007464146484602F0E5F98246384651460E
:1003E00002F066FB0FD25146484602F04FFA3946FA
:1003F00002F092FB81465146404602F047FA3946E8
:1004000002F08AFB80463846494602F051FC4146DC
:1004100002F04EFC6FF0010102F0F1FC82464FF059
:10042000FF373946484602F0EAFC514602F0BAF975
:1004300081463946404602F0E2FC494602F0B2F9F4
:100440000746BBF1070F37D2DFE80BF0360A2A0464
:100450001A142000504602F0F7FA3060484604E0D3
:10046000484602F0F1FA3060504602F0EDFA28609A
:1004700038461EE0384602F0E7FA3060504614E095
:10048000384602F0E1FA3060484604E0484602F09F
:10049000DBFA3060384602F0D7FA2860504608E0B0
:1004A000504602F0D1FA3060384602F0CDFA2860AA
:1004B000484602F0C9FA2060BDE8F09F704772B666
:1004C000FEE700002DE9F84FDFF8B8910024A9F10C
:1004D000040B23460F2709F1040AABF1040EC9E00F
:1004E0000125A5402A40AA427DD1674ED1F804C01B
:1004F000ACEB0608B44532D014DCBCF1030F3AD0A3
:1005000009DCBCF1000F2AD0BCF1010F1CD0BCF1FA
:10051000020F31D11DE0BCF1110F17D0BCF1120F49
:100520002AD119E0B8F5881F19D006DCB8F5803F4C
:1005300015D0B8F5801F1FD111E0B8F5001F0ED0FF
:10054000B8F5041F18D10AE0CB6815E0CB681B1D75
:1005500012E0CB6808330FE0CB680C330CE08B68FB
:100560002BB1012B4FF0080303D0456104E00423B5
:1005700002E0056100E00023FF2A01D8064601E001
:1005800000F104064FEA840501D9A5F12005D6F84B
:10059000008007FA05FC28EA0C0803FA05F548EA8A
:1005A0000508C6F800804D68ED0062D5374DAE698C
:1005B00046F00106AE61AD6924F0030605F00105C1
:1005C0000095334D06EB050CDCF80850A607360FF6
:1005D00007FA06F825EA0805DFF8B880404503D198
:1005E0004FF0000817E044E0DFF8AC80404502D14E
:1005F0004FF001080FE0DFF8A480404502D14FF032
:10060000020808E0DFF89880404502D14FF0030867
:1006100001E04FF0040808FA06F848EA0508CCF8AB
:1006200008804D68D9F80060ED024D4601D51643AB
:1006300000E096432E604D68DAF80060AD02554642
:1006400001D5164300E096432E604D68DBF800604C
:10065000AD035D4601D5164300E096432E604D681C
:10066000DEF80060ED03754601D5164300E09643C1
:100670002E60641C0D682A46E5407FF431AFBDE86A
:10068000F88F000008040140000011100010024023
:100690000000014000080140000C01400010014032
:1006A000001401400AB1016170470904FBE7000032
:1006B00001488068704700000400002002488168FB
:1006C000027811448160704704000020074810B58B
:1006D000016841F010010160032000F075F80F205F
:1006E00000F006F800F024F8002010BD00200240C1
:1006F00070B50D4D04464FF47A712878B1FBF0F0D7
:100700000A490968B1FBF0F000F0BCFA48B9102CB6
:1007100007D200222146501E00F036F800206C60FF
:1007200070BD012070BD00000400002010000020FA
:100730000C4808B5816941F001018161816901F0CE
:1007400001010091C16941F08051C161C06900F0AF
:10075000805000900448416821F0E06141F0007150
:10076000416008BD0010024000000140002809DB84
:1007700000F01F02012191404009800000F1E020BB
:10078000C0F8001170470000F0B40E4B1B680C4617
:10079000C3F30223C3F10705042D00D90425191D55
:1007A000072901D2002300E0DB1E012606FA05F12D
:1007B000491E214099409E40761E16403143F0BCB0
:1007C00001F018B90CED00E0064900F007020868D6
:1007D0004FF6FF03184040EA0220034A1043086026
:1007E000704700000CED00E00000FA052DE9F0472D
:1007F0000F46050061D0434E306800F00700B84254
:1008000009D2306820F0070038433060306800F0CB
:100810000700B84251D128683B4C810712D54007E8
:1008200003D5606840F4E06060602878000703D575
:10083000606840F4605060606068A96820F0F00073
:10084000084360602878C00728D06868012810D065
:100850002168022810D0890700292EDA616821F06A
:10086000030101436160FFF723FF804641F28839AD
:100870000DE021688903EFE78901EDE7FFF718FF35
:10088000A0EB0801494502D90320BDE8F087606864
:10089000696800F00C00B0EB810FEFD1306800F018
:1008A0000700B8420BD9306820F0070038433060A9
:1008B000306800F00700B84201D00120E5E7287851
:1008C000400705D56068E96820F4E060084360608F
:1008D0002878000706D56068296920F4605040EA4E
:1008E000C100606000F018F86168084AC1F30311A4
:1008F000515CC8400649086006480068FFF7F8FEEA
:100900000020C2E700200240001002408C2E0008A8
:1009100010000020080000200E4A51680E4801F027
:100920000C03042B11D0082B0FD10C48C1F38343C7
:10093000C903C05C0AD55168084AC1F34041921E00
:10094000515C054A5043B0FBF1F0704704494843FD
:10095000704700000010024000127A007C2E000850
:1009600000093D002DE9F84F040070D02078C04DFB
:10097000C00749D06868C0F38100012807D06868C3
:10098000C0F38100022809D16868C00306D5286831
:10099000800339D560680028E7D035E06068B0F59D
:1009A000803F0BD010B1B0F5A02F11D0286820F4F3
:1009B00080302860286820F4802002E0286840F415
:1009C00080302860606890B1FFF772FE06460AE04A
:1009D000286840F480202860F0E700BFFFF768FE39
:1009E000801B642873D828688003F7D50CE0FFF7D4
:1009F0005FFE064605E000BFFFF75AFE801B642835
:100A0000F0D828688003F7D420789A4E80074FF0FA
:100A100001094FF0000839D5686810F00C0F07D0B5
:100A20006868C0F38100022809D16868C00306D451
:100A30002868800714D52069012808D110E02069B2
:100A4000B0B1C6F80090FFF733FE074605E00AE1B3
:100A5000FFF72EFEC01B0228C4D828688007F7D5F0
:100A60002868616920F0F80040EAC10028600DE0C4
:100A7000C6F80080FFF71CFE074604E0FFF718FEEB
:100A8000C01B022823D828688007F7D420780007E5
:100A90002CD57948A169D9B1C0F80090FFF708FEBC
:100AA000074604E0FFF704FEC01B02280FD8686A5F
:100AB0008007F7D571484FF4FA510068B0FBF1F0A8
:100AC000009000BF0098411E0091FAD20EE080E035
:100AD000C0F80080FFF7ECFD074604E0FFF7E8FDF3
:100AE000C01B022875D8686A8007F7D420784007B1
:100AF00060D5E8690027C00008D4E86940F080505C
:100B0000E861E869012700F0805000905C480168C6
:100B1000C90513D40168834641F480710160FFF771
:100B2000C7FD824606E000BFFFF7C2FDA0EB0A004A
:100B300064284ED8DBF80000C005F5D5E068012830
:100B40000AD008B1052813D0286A20F001002862D5
:100B5000286A20F0040002E0286A40F001002862C0
:100B6000E06841F2883B98B1FFF7A2FD82460BE0B6
:100B7000286A40F004002862EEE700BFFFF798FD06
:100B8000A0EB0A0159455AD8286A8007F6D50CE02F
:100B9000FFF78EFD824605E0FFF78AFDA0EB0A0114
:100BA00059454CD8286A8007F6D41FB1E86920F06F
:100BB0008050E861E06988B36968C1F38101022966
:100BC00044D00228C6F8608004D0FFF771FD0446C7
:100BD00038E034E0FFF76CFD074604E0FFF768FDFE
:100BE000C01B02282BD828688001F7D4206AB0F5F2
:100BF000803F05D16868A16820F400300843686030
:100C0000D4E908010843696821F474110843686055
:100C1000C6F86090FFF74CFD044606E025E000BFF3
:100C2000FFF746FD001B022809D828688001F7D588
:100C30001BE000BFFFF73CFD001B022802D9032088
:100C4000BDE8F88F28688001F4D40EE00128F7D0C1
:100C50006868226A00F48031914204D1616A00F42C
:100C60007010884201D00120EAE70020E8E7000088
:100C70000010024000004242800442421000002066
:100C80000070004010B5401EB0F1807F01D30120FC
:100C900010BD4FF0E02460610F21601700F0AAFE44
:100CA0000020A06107202061002010BD7047704720
:100CB00010B590F83C20012A22D0012280F83C2077
:100CC000CA688C6822F4407222434C6822F4806225
:100CD00022430C6822F4006222430C6922F4805201
:100CE00022434C6922F400522243C969002322F4B2
:100CF00080420A4301684A6480F83C30002010BDFD
:100D0000022010BD70B590F83C20012A26D00124A5
:100D100080F83C40022280F83D2003685A689D68B4
:100D200022F070060A6832435A600D4B02689A42FC
:100D300008D0B2F1804F05D00A4B9A4202D00A4B3C
:100D40009A4204D1496825F080031943916080F8E4
:100D50003D40002180F83C10084670BD022070BD67
:100D6000002C0140000400400008004010B50400C1
:100D700003D094F83D0010B107E0012010BD002021
:100D800084F83C00204600F01FF8022084F83D0063
:100D9000211D206800F08CFC012084F8460084F8B6
:100DA0003E0084F83F0084F8400084F8410084F855
:100DB000420084F8430084F8440084F8450084F835
:100DC0003D00002010BD000008B5114A016811481F
:100DD000914208D1816941F400618161806900F428
:100DE0000060009008BDB1F1804FFBD1C16941F0B6
:100DF0000101C161C069002200F0010000901146AC
:100E00001C20FFF7C1FCBDE808401C20FFF7AEBC6A
:100E1000002C01400010024090F83D10012901D043
:100E200001207047022180F83D100168CA6842F035
:100E30000102CA6000680B49884208D0B0F1804FB7
:100E400005D00949884202D00849884204D1816806
:100E500001F00701062903D0016841F0010101609A
:100E600000207047002C01400004004000080040B2
:100E700070B5044690F83C000025012817D00126E3
:100E800084F83C60022084F83D002068826822F0EB
:100E9000770222F47F4282600868502838D00DDC47
:100EA00020284FD005DC90B3102811D14AE0022051
:100EB00070BD302846D040280AD13BE060282FD0B2
:100EC00070280DD0B0F5805F03D0B0F5005F12D070
:100ED000012584F83D60002084F83C00284670BD60
:100EE000CB68D1E90121206800F025FC20688168E9
:100EF00041F0770109E0CB68D1E90121206800F0D9
:100F00001AFC2068816841F480418160E1E719E0C2
:100F1000CA684968206800F0C3FC5021206806E0D8
:100F2000CA684968206800F0CCFC6021206800F0A5
:100F30000CFCCEE7CA684968206800F0B1FC40218B
:100F40002068F4E7226801461046F0E7704770B564
:100F50000446006801694FF00005C943890715D4AC
:100F6000C168C943890711D4E91E016101202077B6
:100F7000206880698007204602D0FFF7E7FF04E081
:100F800000F0BEF8204600F050F92577206801698E
:100F9000C943490717D4C168C943490713D46FF03F
:100FA00004010161022020772068806910F4407FED
:100FB000204602D0FFF7CAFF04E000F0A1F8204667
:100FC00000F033F9257720680169C943090716D471
:100FD000C168C943090712D46FF0080101610420F8
:100FE00020772068C0698007204602D0FFF7AEFF57
:100FF00004E000F085F8204600F017F92577206816
:101000000169C943C90617D4C168C943C90613D4C5
:101010006FF010010161082020772068C06910F48A
:10102000407F204602D0FFF791FF04E000F068F80F
:10103000204600F0FAF8257720680169C943C907FE
:1010400008D1C168C943C90704D1891E016120467E
:1010500000F03AF920680169C943090609D4C1685A
:10106000C943090605D46FF0800101612046FFF7EE
:101070001DFE20680169C943490609D4C168C943F6
:10108000490605D46FF040010161204600F03EF9A9
:1010900020680169C94389060BD4C168C943890620
:1010A00007D46FF0200101612046BDE87040FFF7D2
:1010B000FEBD70BD00B585B0002100910191029187
:1010C000039100680B49884212D10B48816941F0B5
:1010D000040181618069694600F0040004904FF4C6
:1010E000E06000900220019003900448FFF7EAF9C5
:1010F00005B000BD002C0140001002400008014076
:10110000704770B5044690F83C0000260D46012853
:101110000FD0012084F83C006AB1042A1DD0082AAF
:101120002FD00C2A3FD00126002084F83C00304606
:1011300070BD022070BD206800F010FB206881693E
:1011400041F0080181612068816921F00401816119
:10115000206881692A69114311E0206800F026FBAC
:101160002068816941F4006181612068816921F40E
:1011700080618161206881692A6941EA0221816177
:10118000D2E7206800F03EFB2068C16941F0080109
:10119000C1612068C16921F00401C1612068C16991
:1011A0002A69114311E0206800F058FB2068C169EA
:1011B00041F40061C1612068C16921F48061C161AD
:1011C0002068C1692A6941EA0221C161ACE710B512
:1011D000040003D094F83D0010B107E0012010BDD9
:1011E000002084F83C00204600F01EF8022084F81D
:1011F0003D00211D206800F05BFA012084F84600C4
:1012000084F83E0084F83F0084F8400084F84100F0
:1012100084F8420084F8430084F8440084F84500D0
:1012200084F83D00002010BD7047704710B504469B
:10123000022249B104290ED0082913D094F84100A4
:10124000012816D0012010BD94F83E000128F9D1E4
:1012500084F83E200FE094F83F000128F2D184F892
:101260003F2008E094F840000128EBD184F84020AA
:1012700001E084F841200122206800F04FFA0F4974
:101280002068884203D1426C42F4004242642068E4
:10129000884208D0B0F1804F05D00949884202D079
:1012A0000849884204D1816801F00701062903D06A
:1012B000016841F001010160002010BD002C0140D7
:1012C000000400400008004038B50068B0F1804FCD
:1012D00013D14FF44860094C0090182308490020AE
:1012E000226800F073F90749206801F05BFA0649AB
:1012F0002060884201DB0020206038BD0000002013
:101300000000204134FA8E3CC3F5C8407047FEE728
:1013100030B585B0002000900190029003901648EF
:10132000816941F010018161816901F0100104912E
:10133000816941F020018161816901F020010491FE
:10134000816941F00401816180690C4D00F0040065
:101350004FF4E0540490002221462846FFF7A2F9FA
:10136000012002210094CDE901010391694628463C
:10137000FFF7A8F805B030BD001002400010014092
:1013800010B596B000240F941094119412941394F5
:101390001C2168461494FEF713FF202107A8FEF7CE
:1013A0000FFF3248304901600121416020218160F6
:1013B0004FF4C861C0E9031444618461FFF7D6FCAF
:1013C00008B1FFF77CF84FF480500F900FA9274821
:1013D000FFF74EFD08B1FFF772F82448FFF7F7FE5C
:1013E00008B1FFF76CF8139413A920481494FFF781
:1013F00089FC08B1FFF763F8602000904FF4487053
:10140000CDE9010403940494059400226946174829
:101410000694FFF776FE08B1FFF751F804226946FB
:101420001248FFF76EFE08B1FFF749F80822694637
:101430000E48FFF766FE08B1FFF741F807940894DD
:1014400009944FF400500A94CDE90B4007A90748CE
:101450000E94FFF72DFC08B1FFF731F80348FFF7B2
:1014600029FE16B010BD0000002C01401400002021
:1014700010B586B00024154800940194029403949A
:1014800004944FF080410594C0E900141049C0E96C
:10149000024104618461FFF769FC08B1FFF70FF8AE
:1014A0004FF48050009069460848FFF7E1FC08B10E
:1014B000FFF705F8049404A904480594FFF722FCFB
:1014C000002801D0FEF7FBFF06B010BD5C00002035
:1014D0006CB60200FEE7FEE770472DE9F05F0646B6
:1014E00099468B461046DDF828A001F091FA044693
:1014F000FEF7CAFE05462046FEF70EFF04461821F9
:10150000304601F07CFC01F083FA80462946FEF764
:10151000FBFE07461821584601F071FC01F078FAED
:1015200006462146FEF7F0FE381AFEF733FFC9F8EB
:10153000000040462146FEF7E7FE044630462946B5
:10154000FEF7E2FE2044FEF725FFCAF80000BDE8E2
:10155000F09F70472DE9F0410C46182101F04FFC37
:1015600001F056FA074639461748FEF7CDFE054604
:101570001821204601F043FC01F04AFA80464FF45E
:10158000000641463046FEF7BFFE281AFEF702FF6E
:1015900005460D4839464042FEF7B6FE074641462D
:1015A0003046FEF7B1FE381AFEF7F4FE0146002081
:1015B000B44200DB0120B54200DB801CB14200DBFD
:1015C000001DBDE8F0810000D7B3DD0070B58AB022
:1015D00000241E460E9D059404AB039404940093CE
:1015E000069407940894099403ABFFF776FFDDE9AE
:1015F0000301FFF7AFFF044606A805A90095CDE952
:101600000110DDE903123346204600F06DF909AA06
:1016100008A907A88DE80700DDE905122B4620463A
:10162000FEF7CBFE054807990268516302680899E6
:10163000916300680999C1630AB070BD140000206D
:10164000FFF73CB830B58FB028216846FEF7B8FDEB
:1016500014210AA8FEF7B4FD01204FF4A0210024B4
:101660008DE81300049002250004CDE907504FF4E3
:10167000C01009906846FFF775F908B172B6FEE729
:101680000F20CDE90A054FF48060CDE90C4002211E
:101690000AA80E94FFF7AAF8002801D072B6FEE758
:1016A0000FB030BD0148FFF752BC00005C000020C5
:1016B000F0B50268164B174C174D4FF08047984213
:1016C00005D0B84203D0A04201D0A84203D122F0F5
:1016D00070064A683243984205D0B84203D0A0420F
:1016E00001D0A84203D122F44074CA6822434C6955
:1016F00022F08002224302608A68C2620A68826223
:10170000984201D10969016301214161F0BD0000E6
:10171000002C0140000400400008004010B501F01A
:101720001F030121046A99408C430462016A9A40B4
:101730001143016210BD10B5846842EA032224F40B
:101740007F440A432243826010BD826822F0700207
:101750000A4342F0070181607047000030B5036A18
:10176000026A22F0010202624268846924F0730571
:101770000C682C4323F002058B682B430A4DA842CA
:101780000BD123F00805CB6822F440722B434D693E
:1017900023F0040315438A692A434260846149683F
:1017A0004163036230BD0000002C014030B5026A85
:1017B000036A23F010030362436884690D6824F40C
:1017C000E64444EA05248D6822F0200242EA05122C
:1017D0000B4DA8420ED1CD6822F0800242EA0512DC
:1017E0004D6923F4406343EA85038D6922F040028A
:1017F00043EA85034360846149688163026230BDC6
:10180000002C014030B5036A026A22F48072026241
:101810004268C46923F4007324F073050C682C43F8
:101820008D6843EA05230C4DA8420ED1CD6823F400
:10183000006343EA05234D6922F4405242EA05124F
:101840008D6923F4806342EA05124260C4614968ED
:10185000C163036230BD0000002C014030B5046A52
:10186000026A22F4805202624268C3690D6823F45E
:10187000E64343EA05238D6824F4005444EA053422
:10188000064DA84204D14D6922F4804242EA8512F5
:101890004260C36149680164046230BD002C0140AC
:1018A00010B5036A046A24F001040462846924F018
:1018B000F00444EA021423F00A020A43846102623B
:1018C00010BD10B5036A046A24F010040462846930
:1018D00023F0A00324F4704444EA023243EA0111E5
:1018E0008261016210BDFEE72DE9FF4F81B089469C
:1018F000DDE90F651846DDF8388000F042FE074646
:101900000C46404600F03DFE374A384B00F04CFE96
:101910003A46234600F0B0FC00F006FE04461821CB
:10192000484601F06CFA01F073F8834624065946E4
:101930002046FEF7E9FC824659462D48FEF7E4FCB6
:1019400007461821039801F05AFA01F061F80146A0
:101950004FF4000800904046FEF7D6FC391A2046A6
:10196000FEF7D2FC8146224859464042FEF7CCFCA5
:10197000074640460099FEF7C7FC391A2046FEF795
:10198000C3FC80465046FEF705FD07464846FEF775
:1019900001FD04464046FEF7FDFC0199072907D2E8
:1019A000DFE801F006091A04110F170034602F60F8
:1019B00005B0BDE8F08F84F0004180F00040316058
:1019C0000FE037600DE087F00040306084F00040A9
:1019D00007E030602C60EBE780F00040306087F07B
:1019E00000402860E4E70000912B50E67AB6FB3F08
:1019F000D7B3DD000907090E002804DB00F1E02061
:101A000080F80014704700F00F0000F1E02080F82B
:101A1000141D7047FEF75AFEFFF714FEFFF778FC1F
:101A2000FFF7AEFCFFF724FD0F4C01229102204688
:101A3000FEF738FE0122D1022046FEF733FE0122D6
:101A400011032046FEF72EFE00210848FFF7EEFBAB
:101A500004210648FFF7EAFB08210448FFF7E6FBEC
:101A60000348FFF7D9F9FEE70010014014000020F9
:101A70005C00002000000000C60FC900101F92018A
:101A8000622D5B02403A24032D45ED03AF4DB604B1
:101A900048537F057E554806D3531107CC4DDA07CE
:101AA000EE42A308BB326C09B81C350A6900FE0A75
:101AB00053DDC60BF9B28F0CDF80580D8946210E1D
:101AC0007D03EA0E3DB7B20F4E617B103501441124
:101AD00075960C129320D512139F9D1379116614DD
:101AE0004A772E150BD0F6153E1BBF166A5887177E
:101AF00013874F18BCA61719EBB6DF1924B7A71A1E
:101B0000ECA66F1BC885371C3B53FF1CCC0EC71DB2
:101B1000FEB78E1E574E561F5BD11D208F40E5200D
:101B2000799BAC219EE1732281123B23AA2D0224D2
:101B30009C32C924DD209025F3F7562662B71D2775
:101B4000B05EE42762EDAA28FF6271290BBF372A35
:101B50000D01FE2A8928C42B06358A2C0A26502D11
:101B60001AFB152EBDB3DB2E784FA12FD1CD6630D9
:101B7000502E2C317970F131D393B632E6977B3306
:101B8000367C40344B400535ACE3C935DE658E36D6
:101B90006AC65237D5041738A720DB3866199F3933
:101BA0009AEE623ACB9F263B7E2CEA3B3C94AD3CBE
:101BB0008CD6703DF6F2333E01E9F63E36B8B93FB9
:101BC0001B607C4039E03E41183801423F67C34208
:101BD000386D85438B494744BFFB08455E83CA4542
:101BE000F0DF8B46FD104D470F160E48AFEECE4886
:101BF000659A8F49BB18504A3A69104B6C8BD04B91
:101C0000D97E904C0C43504D8DD70F4EE83BCF4EB4
:101C1000A66F8E4F50724D5072430C5195E2CA51CF
:101C2000444F89520A894753708F05540362C35445
:101C30004C008155D7693E562E9EFB56DE9CB85708
:101C40007265755875F731597352EE59F775AA5A7E
:101C50008E61665BC414225C258FDD5C3DD0985D8F
:101C600098D7535EC4A40E5F4E37C95FC18E8360A0
:101C7000ACAA3D619B8AF7611B2EB162BB946A637B
:101C800008BE23648FA9DC64DF56956585C54D6663
:101C900010F505670FE5BD670F9575689F042D6901
:101CA0004F33E469AE209B6A49CC516BB235086C66
:101CB000775CBE6C2840746D54E0296E8C3CDF6EFE
:101CC0006054946F602749701DB5FD7026FDB17199
:101CD0000EFF657265BA1973BC2ECD73A45B807458
:101CE000AF4033756EDDE57574319876523C4A77B6
:101CF0009BFDFB77E074AD78B5A15E79AC830F7A7C
:101D0000581AC07A4C65707B1B64207C5916D07CB5
:101D1000997B7F7D70932E7E715DDD7E30D98B7FC8
:101D200041063A803AE4E780AF72958135B142824C
:101D3000629FEF82C93C9C8302894884A183F4841A
:101D40003C2CA0856B824B86C285F686D935A1874F
:101D500047924B88A19AF5887F4E9F897AAD488A31
:101D600027B7F18A1F6B9A8BFAC8428C50D0EA8C45
:101D7000B980928DCDD9398E27DBE08E5E84878F36
:101D80000CD52D90CACCD390316B7991DDAF1E92DA
:101D9000669AC392672A68937A5F0C943B39B09431
:101DA00044B7539530D9F6959A9E99961F073C975C
:101DB0005A12DE97E7BF7F98620F21996800C29997
:101DC0009692629A88C5029BDC98A29B2F0C429C3B
:101DD0001F1FE19C49D17F9D4C221E9EC611BC9EB7
:101DE000569F599F9ACAF69F329393A0BCF82FA191
:101DF000D9FACBA1289967A249D302A3DDA89DA354
:101E0000831938A4DD24D2A48BCA6BA52F0A05A69A
:101E10006BE39DA6DF5536A72E61CEA7FB0466A80F
:101E2000E740FDA8951494A9A97F2AAAC581C0AA54
:101E30008D1A56ABA449EBABB00E80AC536914AD10
:101E40003259A8ADF3DD3BAE3AF7CEAEACA461AFEC
:101E5000EFE5F3AFA9BA85B07F2217B1191DA8B17C
:101E60001CAA38B230C9C8B2FB7958B325BCE7B355
:101E7000558F76B434F304B569E792B59E6B20B6FE
:101E80007A7FADB6A7223AB7CE54C6B7991552B8E5
:101E9000B064DDB8BF4168B970ACF2B96DA47CBA6A
:101EA000622906BBF83A8FBBDDD817BCBA02A0BCCA
:101EB0003EB827BD13F9AEBDE7C435BE661BBCBE38
:101EC0003EFC41BF1B67C7BFAB5B4CC09ED9D0C0B7
:101ED000A0E054C16070D8C18D885BC2D728DEC233
:101EE000ED5060C37E00E2C33A3763C4D2F4E3C46A
:101EF000F73864C55903E4C5A95363C69929E2C6F6
:101F0000DA8460C71F65DEC71BCA5BC87FB3D8C849
:101F1000FE2055C94D12D1C91D874CCA247FC7CA9E
:101F200016FA41CBA6F7BBCB8A7735CC7779AECC06
:101F300021FD26CD40029FCD888816CEAF8F8DCE55
:101F40006E1704CF791F7ACF8AA7EFCF56AF64D030
:101F50009636D9D0023D4DD153C2C0D141C633D2FD
:101F60008548A6D2D84818D3F5C689D395C2FAD3E6
:101F7000733B6BD44831DBD4D1A34AD5C992B9D5D0
:101F8000EAFD27D6F1E495D69A4703D7A22570D764
:101F9000C57EDCD7C15248D852A1B3D8386A1ED901
:101FA00030AD88D9F869F2D94FA05BDAF54FC4DAC1
:101FB000A8782CDB291A94DB3734FBDB94C661DC70
:101FC000FFD0C7DC3A532DDD064D92DD25BEF6DD90
:101FD00058A65ADE6305BEDE09DB20DF0B2783DF50
:101FE0002DE9E4DF342146E0E2CEA6E0FDF106E192
:101FF0004A8A66E18C97C5E18A1924E2091082E2D7
:10200000D07ADFE2A4593CE34DAC98E39172F4E35B
:1020100038AC4FE40A59AAE4CE7804E54D0B5EE5EE
:102020005010B7E5A0870FE6067167E64CCCBEE618
:102030003D9915E7A2D76BE74687C1E7F6A716E8F3
:102040007B396BE8A23BBFE837AE12E9079165E93F
:10205000DEE3B7E98AA609EAD9D85AEA977AABEA61
:10206000948BFBEA9E0B4BEB84FA99EB1658E8EB4A
:10207000222436EC7A5E83ECEC06D0EC4B1D1CED92
:1020800067A167ED1293B2ED1DF2FCED5ABE46EE6C
:102090009CF78FEEB69DD8EE7BB020EFBF2F68EF98
:1020A000551BAFEF1173F5EFC9363BF0516680F069
:1020B0007F01C5F0280809F1227A4CF144578FF1CD
:1020C000649FD1F1595213F2FC6F54F224F894F248
:1020D000A8EAD4F2624714F32B0E53F3DB3E91F3DC
:1020E0004DD9CEF35ADD0BF4DD4A48F4B12184F426
:1020F000B061BFF4B60AFAF49F1C34F547976DF54A
:102100008B7AA6F547C6DEF5597A16F69E964DF6F9
:10211000F51A84F63B07BAF6505BEFF6131724F76F
:10212000633A58F71FC58BF729B7BEF76010F1F770
:10213000A6D022F8DDF753F8E48584F8A07AB4F845
:10214000F1D5E3F8BC9712F9E2BF40F9484E6EF9B9
:10215000D2429BF9639DC7F9E15DF3F930841EFA21
:10216000361049FAD80173FAFD589CFA8C15C5FA55
:102170006A37EDFA80BE14FBB4AA3BFBF0FB61FBAF
:102180001AB287FB1DCDACFBE14CD1FB4F31F5FB07
:10219000527A18FCD4273BFCBE395DFCFDAF7EFCB7
:1021A0007C8A9FFC26C9BFFCE86BDFFCAD72FEFC9D
:1021B00064DD1CFDF8AB3AFD58DE57FD727474FD0A
:1021C000346E90FD8DCBABFD6B8CC6FDBFB0E0FDDA
:1021D0007838FAFD872313FEDC712BFE682343FE5B
:1021E0001D385AFEEBAF70FEC78A86FEA1C89BFE63
:1021F0006D69B0FE1F6DC4FEA9D3D7FE009DEAFE37
:1022000018C9FCFEE6570EFF5F491FFF799D2FFF9F
:102210002A543FFF686D4EFF2AE95CFF66C76AFFDC
:10222000140878FF2CAB84FFA7B090FF7C189CFFAC
:10223000A6E2A6FF1C0FB1FFD99DBAFFD78EC3FF40
:1022400010E2CBFF8097D3FF21AFDAFFF028E1FF48
:10225000E704E7FF0443ECFF44E3F0FFA2E5F4FFEB
:102260001E4AF8FFB510FBFF6539FDFF2CC4FEFFC9
:102270000BB1FFFFFFFFFFFF2DE9C04130B4DFF8D6
:10228000A0C23CEA111418BF3CEA131400F0EC8021
:1022900081EA03051CEA111444EAD57418BF1CEA4C
:1022A000131500F0C780A4EB05044FF0004545EA84
:1022B000C12145EAC32341EA505143EA525304F194
:1022C0007F74994204F500344FEAC0204FEAC222DD
:1022D00008BF904200F09C804FEA13650FF2401651
:1022E000765D4FEA134506FB05F7C7F1807706FBDD
:1022F00007F74FEAD737A7FB03687642C8F580385F
:10230000A7FB06CE38BFA8F1010807FB08E64FF08F
:10231000000EA6FB028CE6FB03CEDCF1000CCEF136
:10232000004E38BFAEF1010EA6FB0C584FF000076F
:102330004FF00005E6FB0E87A1FB08C6A0FB07CE09
:1023400016EB0E0645F10005E1FB076515F1E04EC1
:102350007EBFA4F580345FEA46066D4116F1800722
:1023600045F100054FEA17274FEA066647EA056779
:10237000A6F1DE46B6F1805F4FEA15251FD9384633
:1023800024F0010C05EBC471BCF1FE6F01EB0C11E4
:1023900002D8F0BCBDE8008124425CBF01F5801E7C
:1023A0009EEAC47F02D4F0BCBDE80081244238D448
:1023B000F0BCA1F1C041BDE8004100F0EDB94FEA29
:1023C000D22242EA43524FEAD323A7FB02864FEAC6
:1023D000D02040EA415007FB03661EEA0E0F4FEA89
:1023E000D12105FB026658BFA6EB0056B6EB00569E
:1023F0004FEA520E4EEAC37E18EB0E0E56EB530E0A
:10240000BDD518EB02085E417F1C55F10005B6E70B
:102410004FF480154FF000074FF000064FF0000812
:10242000ADE7F0BC4FF0000001F1C04101F0004108
:10243000BDE8008111EA0C1F0CEA131500D00CE076
:1024400013EA0C1F00F025804FF00000F0BC81EA79
:10245000030101F00041BDE80081F0BCBDE800418E
:1024600081EA030100F098B9F0BCBDE8004170B505
:1024700000F044F9097EFC3E00F007B881EA030150
:102480004FF0000001F00041704781EA030100F0C5
:1024900083B9F0BCBDE800414FF00000214970470E
:1024A000FFFDFBF9F7F5F4F2F0EEEDEBE9E8E6E419
:1024B000E3E1E0DEDDDBDAD8D7D5D4D3D1D0CFCDA0
:1024C000CCCBCAC8C7C6C5C4C2C1C0BFBEBDBCBBD9
:1024D000BAB9B8B7B6B5B4B3B2B1B0AFAEADACABD4
:1024E000AAA9A8A8A7A6A5A4A3A3A2A1A09F9F9EAE
:1024F0009D9C9C9B9A999998979796959594939360
:10250000929191908F8F8E8E8D8C8C8B8B8A8989F6
:102510008888878786858584848383828281818079
:102520000000FF070000F87F4FEA1153A3F5806316
:10253000D3F11E03A8BFD3F1200C08DB4FF00042FB
:1025400042EAC12252EA505232FA03F0704709427D
:102550000BD4102BC4BF0020704703F5787CBCF16E
:10256000FF3F05D04FF0FF3070474FF0000070473D
:1025700070B500F0C3F800BF499224800020704776
:10258000F0E7B0FA80F310FA03F10AD0C3F11D03AB
:1025900003F580634FEA41504FEA035202EBD12129
:1025A00070474FF000007047DFF848C170B51CEA73
:1025B000111E1EBF1CEA13159EEA0C0F95EA0C0FA4
:1025C00000F06F8081EA030423EA4C134EEAD47EC4
:1025D00021EA4C1141F4801143F48013AE44A1FB75
:1025E000024CA0FB0365AEF17F7E361955EB0C055E
:1025F000A1FB034C4CF10003A0FB021C16EB0C06E4
:10260000654153F10003094218BF46F0010613F477
:10261000007F0BD14FEA03314FEA0530340341EA22
:10262000155140EA16506FF003020AE04FEAC32149
:102630004FEAC520F40241EA555140EA56506FF086
:10264000020202EB2E4201EB025585EACE710AD05E
:102650005FEA440C18BF24F0004450F1000041F13F
:10266000000120EAD47040F2FE7C624500D270BDC9
:10267000A84214BF4FF080444FF04044002E08BFE2
:102680000024BEF1806FA8BFA1F1C041BDE8704039
:1026900080F282804FF0000001F1C04101F0004162
:1026A00070479EEA0C0F0CEA131518BF95EA0C0F41
:1026B00006D04FF0000081EA030E0EF0004170BD1D
:1026C00000F01CF88900013E00F007B800F009B8DE
:1026D0004FEA430C5FEA5C5C08D081EA030100F03A
:1026E0005BB84FEA410C5FEA5C5CF6D14FF000004A
:1026F000014970470000FF070000F87F0EF1020E4D
:102700002EF0030E5EF8046B364205D4012A43EB2B
:10271000030515F5001F12D8012841EB010C1CF52B
:10272000001F0CD80ED14FEAD17C15F5001F0CEB21
:102730004C0C0CF1020C08BF4CEBD37C04E04FF0C6
:10274000080C01E04FEAD37C0CEB4C0526FA05F6A9
:1027500006F00706B6F1040C06D20EEB860CBDE8B7
:1027600070404CF0010C6047DFE80CF0090B0202EE
:102770004FF000414FF00000A1F5002170BD194657
:102780001046012851EB010418BFD4F5001484BF92
:10279000002001F0004170BD0808A0F500114FEACB
:1027A0003101704790EA010F48BF81F0004100F10C
:1027B0008682421A3CBF801A89184FEAD0524FF0E5
:1027C0007F4C1CEA410FA2EBD15318BF9CEA026F69
:1027D00000F03B804FF0004C4CEA00204CEA012115
:1027E00021FA03FC10EB0C0C1ED202F1FF325FEA5F
:1027F0001C2040EBC25038BF70471CF07F0F4FEADF
:10280000400C18BFBCF17F4F38BF7047C3F12003A5
:10281000994008BF20F00100BCF17F4F38BF7047DE
:10282000A0F1C04000F03FBA4FEA3C00000A40EB84
:10283000C25028BF1CF0FF0F4FEA400CE6D018BF73
:10284000BCF17F4F38BF7047EAE79CEA026F05D0C2
:1028500010EA5C0F08BF00F00040704710B500F0B0
:10286000DCF900BF64FBBE3E014800F096BA00BF31
:102870000000C07F401058BFC0F14040491058BF11
:10288000C1F140418142EFF3008070474FF47F0C6B
:102890001CEAD0121EBF1CEAD11392EA0C0F93EA75
:1028A0000C0F00F0858090EA010F48BF42F480725F
:1028B00040F4000C41F400002CF07F4120F07F40F8
:1028C00000B58142A2EB03020FF2081CACEB504EA4
:1028D000C0F100009EF800E04FEA4E0E00FB0EFC37
:1028E00038BF49004FEA2C1C02F5FA020CFB0EF32C
:1028F0004FEACE1E4FEA112C4FEAC1210EEB635E68
:1029000042EB22420EFB0CFC4FEA1C5300FB03116E
:102910004FEA112C4FEA01310EFB0CFC4FEADC4C64
:1029200000FB0C11C14228BF09184CEB03335DF8C2
:1029300004EB10EB410143EBC250B2F57C0F38BF02
:10294000704729D512F0F00F1CBF00F1C04000F015
:1029500000407047008182838485868788898B8CBC
:102960008D8E8F919293959697999A9C9D9FA0A2F8
:10297000A3A5A7A8AAACAEB0B2B3B5B7B9BCBEC048
:10298000C2C5C7C9CCCED1D4D7D9DCDFE2E6E9ECE9
:10299000F0F3F7FAFE0000004FEA400C0CF1807CE7
:1029A000BCF17E4F28BF7047B0F1C04000F07BB94A
:1029B00090EA010F0CEAD11348BF42F480726245DD
:1029C00038BF634507D213F47F0F16D080EA0100A9
:1029D00000F00040704710B500F01FF9097EFC3E82
:1029E00000F005B880EA010000F00040704780EA7E
:1029F000010000F0004000F056B912F47F0F04BF50
:102A00000248704780EA010000F04DB90000C07F25
:102A100041000B0ED3F19E0208D950F400034FEA97
:102A2000032323FA02F048BF4042704710B500F07C
:102A3000F4F800BF49922480002070476FF00042F4
:102A400082EA200070470000C10DD1F19E0206DB32
:102A50004FEA002343F0004323FA02F0704700429C
:102A600007D54FEA4001B1F1FE4F02D24FF000000E
:102A7000704710B500F0D1F84992248000207047CB
:102A80006FEA200070470000B0FA80F310FA03F2FA
:102A9000C3F19D030AD0D90501EB1220530638BFBC
:102AA000704700F1010008BF20F0010070470000EE
:102AB00050EA010C00F113801CF5000F58BFBCF563
:102AC000000F01D48842704707D710F5000F58BF98
:102AD00011F5000F15D488427047894270471CF5E4
:102AE000000F04D5BCF5000FF7D5814270474FF0B9
:102AF000807C1CEB400F38BF1CEB410F01D28142A0
:102B0000704710B500F089F8922449004FF000504A
:102B10004FF08051FFF7AEBE4FF47F0C1CEAD0128D
:102B20001EBF1CEAD11392EA0C0F93EA0C0F00F0BF
:102B3000478090EA010F48BF42F480724FF0004C8A
:102B40004CEA00204CEA012102EB0302A0FB011336
:102B5000A2F50002002918BF43F001035B0028BF63
:102B60004FEA330342EB22425FEA132C4CEBC25094
:102B70002EBFBCEB436FB2F57C0F70474FEA036C7E
:102B8000BCF1004F08BF20F00100B2F57C0F38BF48
:102B900070470BD582F0FF0212F5803FC8BF704727
:102BA00000F1C040D8BF00F00040704700F5000CB5
:102BB0005FEA4C0C48BF7047B0F1C04000F073B8FA
:102BC00090EA010F0CEAD11348BF42F480726245CB
:102BD00038BF634504D280EA010000F0004070472E
:102BE00010B500F01AF800BF8900013E00F007B8E8
:102BF00000F009B85FEA410C5FEA1C6C08D080EA7B
:102C0000010000F050B85FEA400C5FEA1C6CF6D19E
:102C10004FF00040A0F5800070470EF1020E2EF03C
:102C2000030E5EF8044B244204D44FEA4102B2F191
:102C30007F4F11D84FEA4003B3F17F4F0CD80ED12C
:102C40004FEAD07CB2F17F4F0CEB4C0C0CF1020C34
:102C500008BF4CEBD17C04E04FF0080C01E04FEAD8
:102C6000D17C0CEB4C0324FA03F404F00704B4F118
:102C7000040C06D20EEB840CBDE810404CF0010CA5
:102C80006047DFE80CF0070802024FF00040A0F5B3
:102C9000800010BD0846420018BFD2F1807288BF84
:102CA00000F0004010BDFF2141EAD050C005704740
:102CB00090EA010F48BF81F000413FF57AAD421A1A
:102CC00004D882F00042A0EB020011444FEAD05237
:102CD0004FF07F4C1CEA410FA2EBD15318BF9CEA86
:102CE000026F4AD04FF0004C4CEA00204CEA012120
:102CF00021FA03FCB0EB0C0C0FD412F0FE0F36D00F
:102D00005FEA4C001DD5001240EBC25038BF70473F
:102D10001CF03F0F18BF70470BE0A2F101025FEA01
:102D20001C2040EBC25038BF70471CF07F0F18BF0B
:102D30007047C3F12003994014BF401E20F00100EA
:102D4000704780084FEA122308BF7047B0FA80FC32
:102D5000A2EB0C02CCF1280C60FA0CF093EA122FD3
:102D600004BF00EBC25070474FEAC3707047130AAC
:102D70005FEADC1008BF7047F6E79CEA026F04D0F8
:102D800010EA5C0F08BF0020704710B5FFF745FF41
:102D900040DFF63E81F0004070470CF00F03092B36
:102DA00008BF082000F051800A2B0BD0082B18BF59
:102DB000704708BF1CF0400F0AD04FF000004FF0E2
:102DC000000170471CF0400F18BF4FF000407047E3
:102DD0001CF0100F08D020F0704300F07F4242EA50
:102DE000D3014FEA4370704700F0604021F07F420A
:102DF00042EA000201F07F4040EA727070474FF0F3
:102E0000FF0212EAD0521CBF92F0FF038B42C2BFF6
:102E1000D14200EBC1507047002A0AD0002B0BD0E2
:102E2000002900F00040A4BF40F0FE4040F4000044
:102E3000704700F00040704743024FF00B0C18BF82
:102E40004CF0806C7FF410AD70471CF4801F11D0E3
:102E50001CF4E02F03D06FEACC31490070474FF0EB
:102E60004050EFF3008222F0704242EA000282F307
:102E7000008870474FF0000070470102020304050C
:102E8000060708090A0B0C0D0E0F101000000000B9
:102E9000000000000102030406070809BC2E000818
:102EA000000000201400000028010008D02E0008B7
:102EB00014000020F4060000440100080000000097
:102EC0000100000010000000000000000024F400D9
:04000005080000ED02
:00000001FF
